:020000040800F2
:10000000080D0020BD010008C1010008C30100085F
:10001000C5010008C7010008C90100080000000070
:10002000000000000000000000000000CB010008FC
:10003000CD01000800000000CF010008D101000838
:10004000D3010008D3010008D3010008D301000840
:10005000D3010008D3010008D3010008D301000830
:10006000D3010008D3010008D3010008D301000820
:10007000D3010008D3010008D3010008D301000810
:10008000D3010008D3010008D3010008D301000800
:10009000D3010008D3010008D3010008D3010008F0
:1000A000D3010008D3010008D3010008D3010008E0
:1000B000F51300082F100008DD130008D301000815
:1000C000D3010008D3010008D3010008D3010008C0
:1000D000D3010008D3010008D3010008111A000859
:1000E0009D260008D3010008D301000800F002F8A3
:1000F00000F04FF80AA090E8000C82448344AAF173
:100100000107DA4501D100F044F8AFF2090EBAE870
:100110000F0013F0010F18BFFB1A43F0010318473B
:1001200008A8000028A800000A4410F8014B14F0A9
:100130000F0508BF10F8015B240908BF10F8014B38
:100140006D1E05D010F8013B6D1E01F8013BF9D181
:10015000641E03D0641E01F8015BFBD19142E4D31D
:10016000704700000023002400250026103A28BF15
:1001700078C1FBD8520728BF30C148BF0B60704719
:10018000642906F0F982002070471FB51FBD10B525
:1001900010BD06F0BFFC1146FFF7F7FF00F02AF88C
:1001A00006F0DDFC03B4FFF7F2FF03BC00F02AFA0F
:1001B00030BF72B662B680F30888704708480047BF
:1001C000FEE7FEE7FEE7FEE7FEE7FEE7FEE7FEE707
:1001D000FEE7FEE703480449044A054B7047000068
:1001E000ED00000808070020080D00200809002085
:1001F00008090020092000F0ACF9482000F04CF874
:10020000022000F091F9012000F08EF900F08AFA46
:1002100000F0C2FA00F0F7FC4FF4FA31482000F089
:100220001AFA4FF41651242001F080FB002141F608
:100230001F4000F07BFF00F0DFFF01F03AF800F014
:1002400091FD01F0EDF805F0B6FC05F0C8FC472182
:100250004FF6FF7000F06CFE01F0CAFD14E00B4891
:10026000007820B906F017F805F0FEFE01E006F070
:10027000AEF801200649087000200649087000BF4A
:10028000034800780028FBD1E9E7000007000020C0
:1002900035000020340000204FF0E021096921F0F2
:1002A00004014FF0E0221161C21700EB5272C2F359
:1002B000C702234B1A701946097801EB4102C2EBC1
:1002C000C1114FF6FF7202EAC1011E4A1180704748
:1002D00001461B4A12784A434FF0E0235A6100223C
:1002E0009A6101221A6100BF4FF0E022106900F00C
:1002F00001021AB100F48032002AF5D000224FF03A
:10030000E0231A619A61704701460E4A12884A43F7
:100310004FF0E0235A6100229A6101221A6100BF66
:100320004FF0E022106900F001021AB100F48032AF
:10033000002AF5D000224FF0E0231A619A6170473D
:100340005000002052000020A34A0A400243A34B61
:100350001A6070470146072323EA010212029F4BED
:100360001B1D18684FF6FF0318409D4B18431043A0
:100370009A4B1B1D186070472DE9F04107468846CF
:1003800014461D462846FFF7E5FFC5F1040007FAAD
:1003900000F60F20284100EA0800064306F00F0689
:1003A000E21704EBD2625211920002F1E022D2F87D
:1003B00000212146E31704EBD3635B11A4EB431C3C
:1003C000012303FA0CF31A432046E31704EBD3632B
:1003D0005B119B0003F1E023C3F800218148005D1D
:1003E00040EA06107F490855BDE8F08170B5044623
:1003F0000B46CE1701EB9676C6F38700CE1701EBBE
:100400009676B610A1EB8606B606350E764B9B693E
:1004100043F00103744EB3614FEAB63353F8203012
:100420000F26AE40B343714E46F82030334653F8A2
:10043000203004FA05F61E436C4B43F820606C4BE9
:100440001B6801268E403343694E336002F001037E
:1004500043B1674B0C331B6801268E403343644E17
:100460000C36336002F0020343B1614B08331E685F
:1004700001238B401E435E4B08331E6070BD00B5E8
:10048000002059490861C860142048610020886133
:10049000C8610846006840F00100086008464068EE
:1004A000544908405049486008460068524908408D
:1004B0004D4908600846006820F48020086008461E
:1004C000406820F4FE0048600020886000214FF062
:1004D0000060FFF739FF00BD10B5404808300068E4
:1004E00040F004003D49083108603F48C06940F0D1
:1004F00080503D49C8614148406840F480703F49A0
:1005000048600846006840F004000860084600683B
:1005100040F002000860FFF74BFE10BD3048001DA0
:100520002E49091D08607047014649062E4A926906
:1005300042F001022C4B9A612C4A083A526822F090
:10054000E0622A4B083B5A601A4652680A435A60D6
:10055000704730B504460025FFF791FF2248006838
:1005600040F480302049086000BF1F480068400CFC
:100570000028FAD04FF480601B494860A01EC4B226
:100580000846406840EA844048600846406840F4B5
:10059000803048601A48006840F03200184908600E
:1005A0001148006840F080700F49086000BF0E4895
:1005B0000068400E0028FAD00B48406840F0020066
:1005C0000949486005E008484068C0F3870505F020
:1005D0000305022DF7D130BD80FFFF1F08ED00E0BD
:1005E0000000FA0500E400E00010024008000140AD
:1005F000000401400000FFF8FFFFF6FE007000401D
:1006000000200240014600BF7047404A12785AB9A4
:1006100000BF3F4A128802F04002002AF9D0C2B25D
:100620003B4B1B1D1A800AE000BF3A4A128802F0B9
:100630004002002AF9D0C2B2364B1B1D1A80704707
:100640003449091D088000BF3249098801F0400182
:100650000029F9D070472DE9F05F05460E463001BC
:1006600008F0EAFA81462C4905FB01F008F0E4FAAB
:100670008246494608F096F90746384608F0A4FA3B
:1006800084B2204608F0D8FA8346394608F019FCAF
:1006900082464FF0834108F017FB814608F094FA38
:1006A00080464FF6FF7000EA041404EB080084B2A1
:1006B0001A48806940F0040018498861084680693A
:1006C00040F4804088611648006820F47F60144937
:1006D00008600846006840F40B6008600F48C06876
:1006E00040F480400D49C8600846C06820F480404E
:1006F000C860084808300480001D008842F20C01E0
:10070000084304490C310880BDE8F09F0700002031
:10071000004800400038014040420F0000100240F5
:10072000040801401748806940F0040015498861B9
:100730001548006820F47F201349086008460068C7
:1007400040F44C30086010480C30006840F0100055
:100750000D490C310860704718B900210B4A11602F
:100760000FE00B490968491C094A1160814208D110
:1007700006490968C943074AC2F890110021044A92
:1007800011607047001002400008014090012142B2
:1007900058000020000021425648806940F00400C3
:1007A000544988615448006820F470005249086038
:1007B0000846006840F4000008604F480C300068AC
:1007C00040F020004C490C310860704701464B480E
:1007D000006828B94A480088401C494A108002E055
:1007E0000020474A10804548006828B945480078ED
:1007F00010B90120434A107043480078B0B941480D
:100800000078012807D141480078401C3F4A107009
:1008100001203D4A10703D480078022806D1002092
:100820003A4A10703A4A10800220704733480068F4
:10083000012804D10020334A1070334A1070334825
:10084000007801281CD132480088401C304A1080B2
:100850001046008888420ADD29480088884206DA66
:1008600000202A4A10702A4A10800120DDE724481F
:100870000088884204DD0020244A1070244A108039
:100880000020D2E72348007838B11C48006820B91E
:10089000002020490870012070471848006801288E
:1008A00001D11C4908700020F6E71B48008840B9B8
:1008B0001248006828B919480088401C1749088068
:1008C00002E000201549088014480088C82807DD88
:1008D000012011490880002010490880012070473C
:1008E0000D480088012802D100200B490880002013
:1008F000F5E7000000100240000801401401214209
:10090000620000205C0000205D0000205E000020EE
:1009100060000020640000206800002066000020C5
:1009200010B50A461AB10123FE4C236002E00023F1
:10093000FC4C2360002114E00023FB4C236000F0FA
:1009400080031BB10123241F236003E00023F64C26
:10095000241F23600123F44C23604306180E4B1C14
:10096000D9B20829E8DB0123EE4C236010BD30B575
:1009700000241CE004F1B001C8B20021FFF7D0FF51
:1009800000210846FFF7CCFF00211020FFF7C8FF29
:10099000002508E0E54901EBC501085D0121FFF7ED
:1009A000BFFF681CC5B2802DF4DB601CC4B2082CEC
:1009B000E0DB30BD00B500218D20FFF7B1FF002145
:1009C0001420FFF7ADFF0021AF20FFF7A9FF00BD06
:1009D00000B500218D20FFF7A3FF00211020FFF7B5
:1009E0009FFF0021AE20FFF79BFF00BD30B5002424
:1009F0000CE0002506E00020CC4901EBC5010855BC
:100A0000681CC5B2802DF6DB601CC4B2082CF0DB7C
:100A1000FFF7ADFF30BDF0B5144600267F2801DC9E
:100A20003F2900DDF0BD0B46CF1701EB5777FF10D4
:100A3000C7F10707FAB2CF1701EB5777FF10A1EB09
:100A4000C707FDB2C5F107070123BB40DEB24CB1B9
:100A5000B64B03EBC0039B5C3343B44F07EBC007BB
:100A6000BB5408E0B14B03EBC0039B5CB343AF4FF7
:100A700007EBC007BB5400BFD4E72DE9F04F804619
:100A80000C4615461E46A346A5F12000C5B2002718
:100A90003EE00C2E07D105EB4500A54901EB800097
:100AA00010F8079004E0A34800EB051010F8079039
:100AB0004FF0000A26E009F0800028B121464046A8
:100AC000099AFFF7A8FF09E0099808B9012000E09A
:100AD0000020024621464046FFF79DFF4FEA49604D
:100AE0004FEA1069601CC4B2A4EB0B00B04205D100
:100AF0005C4608F1010000F0FF0806E00AF1010081
:100B000000F0FF0ABAF1080FD5DB00BF781CC7B2AE
:100B1000B742BEDBBDE8F08F10B50246012000E011
:100B200050430B00A1F10104E1B2F9D110BD2DE950
:100B3000FF4F81B0074691461E460E9D4FF0000ABA
:100B4000002439E0301B401EC1B20A20FFF7E4FF49
:100B5000B9FBF0F00A21B0FBF1F201FB1208BAF187
:100B6000000F16D1701EA04213DDB8F1000F0ED198
:100B70000120AB4605EBDB71491001FB04710090CD
:100B8000C8B22B4620220299FFF777FF12E04FF000
:100B9000010A0120AB4605EBDB71491001FB047132
:100BA0000090C8B208F13001CAB22B460299FFF793
:100BB00064FF00BF601CC4B2B442C3DB05B0BDE833
:100BC000F08F78B505460E46144618E07A2D03DD01
:100BD000002506F11000C6B23A2E04DD00200546BD
:100BE0000646FFF703FF0120009022780C233146D0
:100BF0002846FFF742FF05F10800C5B2641C2078C3
:100C00000028E3D178BD10B54B48806940F008005A
:100C1000494988614948006849490840474908608E
:100C200008460068474908434449086042488069CB
:100C300040F00400404988614348006820F070405B
:100C4000414908600846006840F0005008600020F4
:100C50003549083908606420FFF756FB01203B49FD
:100C6000C1F88C010021AE20FFF75AFE0021D520EB
:100C7000FFF756FE00215020FFF752FE0021A8206A
:100C8000FFF74EFE00213F20FFF74AFE0021D32050
:100C9000FFF746FE00210846FFF742FE00214020F4
:100CA000FFF73EFE00218D20FFF73AFE00211420C1
:100CB000FFF736FE00212020FFF732FE0021022040
:100CC000FFF72EFE0021A120FFF72AFE0021C02001
:100CD000FFF726FE0021DA20FFF722FE0021122076
:100CE000FFF71EFE00218120FFF71AFE0021EF20F2
:100CF000FFF716FE0021D920FFF712FE0021F12098
:100D0000FFF70EFE0021DB20FFF70AFE0021302056
:100D1000FFF706FE0021A420FFF702FE0021A62017
:100D200016E00000BC01214294812142980100207C
:100D3000B29000082695000800100240000C014007
:100D4000FF0F00FF00202200040801400080214224
:100D5000FFF7E6FD0021AF20FFF7E2FDFFF746FEBB
:100D600010BD00006A48806940F00400684988614D
:100D70006848006820F070606649086064488069CF
:100D800040F40070624988610846C06840F4007011
:100D9000C8600846C06820F40070C8600846406813
:100DA00020F4404048600846406840F400404860F5
:100DB0005948006859490840574908600846006882
:100DC00008600846006820F480700860081D00680C
:100DD00020F00200091D08600846006820F4602029
:100DE00008600846006840F4602008600846006813
:100DF00040F4801008600846006820F40060086035
:100E000045482830006820F47000434928310860C4
:100E100008460068002008603F480C30006820F059
:100E200070603D490C3108600846006840F4E010ED
:100E300008603948001D006840F001003649091D6E
:100E400008600846006840F00800086000BF3248AB
:100E5000001D006800F008000028F8D12E48001D91
:100E6000006840F004002C49091D086000BF2A48B2
:100E7000001D006800F004000028F8D1704701460A
:100E800025483030006820F01F00234A30321060BF
:100E900010460068084310601F48001D006840F4B9
:100EA00080001D4A121D106000BF1B48001F006813
:100EB00000F002000028F8D017484830006880B2DF
:100EC00070472DE9F04F85B00620FFF7D8FF01905D
:100ED00007F06EF94FF06632114BCDE9020107F0D1
:100EE000B7F9804600220F4B07F0B2F90646002200
:100EF0000D4B07F0ADF9044600220C4B06F0BAFF8B
:100F0000824607F00FF90490049805B0BDE8F08F11
:100F1000001002400008014004240140FFFFF000DF
:100F200066660A4000002640000059400000B040BC
:100F300070B504460D466C48C06940F002006A492D
:100F4000C8610846806940F0080088616748006809
:100F500020F0FF00654908600846006840F028005E
:100F6000086063480480001F0580614810380088CD
:100F700040F001005E49103908800846008808806A
:100F8000084600880880081D0088091D088008465A
:100F9000008840F48070088055482038008840F070
:100FA00008005349203908800846008840F00100B5
:100FB00008804F482C38008840F001004C492C39FB
:100FC000088001231D2203211846FFF7D5F970BDC3
:100FD00010B50120474908600F20FFF779F900207C
:100FE0004549C1F884014548007800F08000E8B127
:100FF0004248007800F03F004149086008460088F8
:1010000000040860084600683E49098808443C49D5
:10101000086008460068AA2148434FF47A71B0FB83
:10102000F1F03749086000203449088010BD30498C
:101030001C3908883149097801F0800100294ED116
:1010400000F00101D1B12D49097801F04001A9B1A9
:101050002A49097801F03F013F290AD12749098827
:1010600041F08001254A11804FF6FF71254A118019
:1010700004E022490988491C204A118000F0080137
:1010800069B31E49097801F0400199B11B490988EB
:1010900041F08001194A1180154910310988194A17
:1010A000118013490C39098821F40071104A0C3A57
:1010B000118014E00021114A1180124A11800F4959
:1010C000098841F040010D4A11800021084A083A80
:1010D0001180111F098841F40071121F1180002135
:1010E000034A1C3A1180704700100240000C014076
:1010F0002C04004084812142008021426A000020AB
:10110000300000206C0000203648806940F0080064
:10111000344988613448006880B233490860084621
:1011200000683249084330490860704700B50246FC
:101130000B46FFF7E9FF2B48806940F4006029491E
:1011400088610846806940F004008861284800688A
:101150004FF20F01884326490860084600684BF2A9
:101160000B0108432249086022480280001F0380C7
:1011700020481038008840F4C0401E4910390880CB
:10118000081F008840F06000091F0880081D0088C3
:1011900040F40060091D0880081F008840F0080026
:1011A000091F088013480C38008840F4805011490A
:1011B0000C3908800846008840F0010008800D487E
:1011C0001830008840F400400A4918310880802017
:1011D00008492C3908800846008840F00100088042
:1011E00000BD000000100240040C0140000022225B
:1011F000040801402C2C014010B58448C06940F01F
:1012000001008249C8610846806940F00400886195
:101210007F48006820F0FF007D49086008460068AC
:1012200040F044000860C804808940F00100C9040F
:1012300088810846808940F04000888101231C2273
:1012400003211846FFF798F800204FF080410885E9
:101250004FF6FF7088850846008820F440700880AB
:101260000846008820F0600008800846008B40F0A7
:10127000010008830846008B40F48070088308460C
:10128000008C20F0020008840846008C20F020002A
:1012900008840846008B40F0300008830846008927
:1012A00040F0030008810846008840F001000880F3
:1012B00010BD10B55548C06940F004005349C861DD
:1012C0000846806940F0080088615248006820F0B4
:1012D0007F40504908600846006840F08840086038
:1012E0004D48008840F001004B49088008460088BE
:1012F00040F04000088001231E2203211846FFF71A
:101300003BF8002044491C3108804FF6FF70091D4E
:10131000088041480C38008820F440703E490C3960
:1013200008800846008820F0600008803A480C30A9
:10133000008840F0010038490C31088008460088D8
:1013400040F48070088034481430008820F0020097
:101350003149143108800846008820F020000880B8
:101360002D480C30008840F030002B490C310880AB
:101370002948001F008840F003002749091F088002
:1013800025480C38008840F0010023490C390880BA
:1013900010BD0146022904D003290BD0042919D11C
:1013A0000FE04FF08042928C10B200224FF0804349
:1013B0009A8411E0194A128810B20022174B1A8041
:1013C0000AE0154A1832128810B20022124B183364
:1013D0001A8001E0002000BF00BF70470E48001DCA
:1013E00000880D48001D008820F001000A49091DF1
:1013F000088070474FF08040008A4FF08040008A9C
:1014000020F001004FF08041088270470010024038
:1014100000080140000C01400C080040240400407A
:10142000F748806940F00800F5498861F548006890
:1014300020F0FF00F34908600846006840F03300E0
:101440000860704710B5EF48006820F0F000ED49E3
:1014500008600846006840F0300008600120EA4952
:101460000860EA48D0F8240108B9002010BD012026
:10147000E549091F0860FEF72BFF0020E349C1F88A
:10148000A401E1488038006808B10020EEE701209F
:10149000FEF71EFF0020DC49091F08600120E5E778
:1014A00010B5D848006820F0F000D649086008461A
:1014B000006840F0300008600020D349091F086030
:1014C000D249C1F8A4010120FEF702FF0120CE4954
:1014D000091F0860CD49C1F8A401FEF7F9FE10BD4F
:1014E00010B50024C748006820F0F000C549086026
:1014F0000846006840F0800008600120C24908608A
:10150000FEF7E6FE0120C149C1F8A001FEF7E0FEAA
:101510000AE0601CC4B2322C03DDFFF7C1FF0020DB
:1015200010BD0120FEF7D4FEB748803800680028BF
:10153000EFD1B549091F08600120F1E710B500207F
:10154000B149091F0860AF48006820F0F000AD49BC
:1015500008600846006840F0300008600020AB4991
:10156000C1F8A4010120FEF7B3FE0120A649091F1E
:101570000860FEF7ADFE0020A449C1F8A00110BD2F
:1015800010B50020A049091F08609E48006820F09F
:10159000F0009C4908600846006840F03000086090
:1015A00001209A49C1F8A401FEF792FE0120964954
:1015B000091F0860FEF78CFE00209449C1F8A001C5
:1015C00010BD70B504468F48006820F0F0008D49CA
:1015D00008600846006840F03000086000208A4932
:1015E000091F0860002516E0E009874908606006C9
:1015F000040E0120FEF76CFE01208449C1F8A00111
:10160000FEF766FE00208049091F08600120FEF7F2
:101610005FFE681CC5B2082DE6DB70BD2DE9F04108
:1016200005460E4617469846FFF70CFF10B90120F5
:10163000BDE8F0816906080EFFF7C3FFFFF750FF12
:1016400018B9FFF72DFF0120F2E73046FFF7B9FF89
:10165000FFF746FF00240BE018F80400FFF7B1FF86
:10166000FFF73EFF18B9FFF71BFF0020E0E7641CFF
:10167000BC42F1DBFFF714FF0020D9E770B5054647
:1016800000246048006820F0F0005E4908600846C9
:10169000006840F080000860002617E000205A49EA
:1016A000091F08600220FEF713FE01205749C1F808
:1016B000A0016006040E54488038006808B1601C20
:1016C000C4B20220FEF704FE701CC6B2082EE5DB91
:1016D00015B1FFF733FF01E0FFF752FF204670BD61
:1016E0002DE9F04106460F4614461D46FFF7AAFEB7
:1016F00010B90120BDE8F0817106080EFFF761FF07
:10170000FFF7EEFE18B9FFF7CBFE0120F2E73846EF
:10171000FFF757FFFFF7E4FEFFF794FE012101EB0F
:101720004601C8B2FFF74DFFFFF7DAFE0DE0012CCE
:1017300004D10020FFF7A2FF287003E00120FFF78B
:101740009DFF28706D1C601EC4B2002CEFD1FFF706
:10175000A7FE0020CEE770B505460E460024FFF731
:1017600071FE2846FFF72DFF641CFFF7B9FE3046D7
:10177000FFF727FF641CFFF7B3FEFFF763FE691C4A
:10178000C8B2FFF71EFF641CFFF7AAFE0020FFF798
:1017900075FF0446FFF784FE204670BD2DE9F04139
:1017A0000746884615461E460024FFF74BFE38467E
:1017B000FFF707FFFFF794FE4046FFF702FFFFF732
:1017C0008FFEFFF73FFE791CC8B2FFF7FAFEFFF766
:1017D00087FE00BF0DE0681EA04204D00120FFF785
:1017E0004DFF305503E00020FFF748FF3055601CE7
:1017F000C4B2AC42EFDBFFF753FE2046BDE8F081F8
:1018000000100240040C0140A481214200802142CA
:101810002DE9F04180460D4616461F460024FFF78D
:1018200011FE4046FFF7CDFEFFF75AFE2846FFF7B0
:10183000C8FEFFF755FE00BF06E0385DFFF7C1FEAA
:10184000FFF74EFE601CC4B2B442F6DBFFF728FE81
:101850000120BDE8F08170B505460E4614463146BC
:101860002846FFF778FF2070012070BD37B5044689
:101870000D4602AB012229462046FFF7C9FF3EBDB7
:101880002DE9F8430746884614461D46089E6A46D9
:1018900041463846FFF7DFFF28B3601CFF2101FAFD
:1018A00000F0C4F108012944491EFF220A411043F7
:1018B00000F0FF09C5F1080006FA00F0C6B2C4F155
:1018C000070006419DF8000000EA090000909DF81D
:1018D0000000304300909DF8002041463846FFF755
:1018E000C5FFBDE8F8830020FBE7F8B506460F46C4
:1018F00014461D466A4639463046FFF7ACFF2DB107
:101900000120A0409DF80010084305E00120A04000
:101910009DF8001021EA0000C0B200909DF8002060
:1019200039463046FFF7A2FFF8BD00002DE9F05F11
:1019300005460E46300107F07FF98146FA4905FB5E
:1019400001F007F079F98246494607F02BF807467F
:10195000384607F039F984B2204607F06DF983461E
:10196000394607F0AEFA82464FF0834107F0ACF9F2
:10197000814607F029F980464FF6FF7000EA04140B
:1019800004EB080084B2E948806940F00800E749A8
:1019900088610846C06940F48020C861E448006856
:1019A00020F47F40E24908600846006840F40B409C
:1019B0000860DF480830006840F48060DC49083186
:1019C0000860DA48006940F48020D8490861084678
:1019D000006920F480200861D6480480001D00883A
:1019E00042F20C010843D349091D088008460088CB
:1019F00040F4807008800846008840F0200008808D
:101A00000223272201210020FEF7B6FCBDE8F09F4B
:101A10002DE9FF5FC7480838008800F02000002843
:101A200076D0C448001F0088C34908600846007883
:101A3000C2490870C0480068592802D10220C04934
:101A40000870BD480068582802D10120BC490870C0
:101A5000B94800680A2865DDB74800685A2809D1E6
:101A60000020B8490870B8490870B8490870B849EA
:101A7000087057E0B048006841280AD10120B149F8
:101A800008700020B0490870B0490870B04908706B
:101A900048E0A948006845280BD10020A9490870F2
:101AA0000120A94908700020A8490870A8490870B9
:101AB00038E0A1480068422807D09F4800684328C2
:101AC00003D09D48006844280AD100209D49087031
:101AD0009D4908709D49087001209D49087021E0CA
:101AE00095480068462807D093480068472803D0E7
:101AF0009148006848280CD100209249087092490A
:101B0000087001209149087000209149087009E08F
:101B100007E100208B4908708B4908708B490870D9
:101B20008B490870844800680A2865DA01208449D6
:101B300008708148006848B90020824908708249CD
:101B40000870824908708249087055E07A48006838
:101B5000012809D17B49087000207B4908707B4926
:101B600008707B49087047E07348006805280BD16E
:101B700000207449087001207349087000207349DF
:101B800008707349087037E06B480068022807D076
:101B900069480068032803D06748006804280AD110
:101BA0000020684908706849087068490870012079
:101BB0006749087020E060480068062807D05E4842
:101BC0000068072803D05C48006808280BD1002073
:101BD0005C4908705C49087001205C49087000206D
:101BE0005B49087008E000205649087056490870A3
:101BF0005649087056490870504800787B2802D131
:101C00000120544908704D4800787D2802D10220F7
:101C1000504908704F48007801280AD14748007899
:101C20004D494E4A127888544C480078401C4B4924
:101C3000087048480078022873D14848007806F0B8
:101C4000FBFF474908604448C078502803D1012071
:101C500044490870ACE04048C078572803D10120BF
:101C600041490870A4E03C48407823285AD03B48BA
:101C700000783E49087034E0384909783B4A1278C8
:101C8000881A06F07EFA804642460B460020384904
:101C900005F0ECFA04460D4634490978491E2E4AEF
:101CA000515CA1F1300006F06CFA064622462B4644
:101CB00006F0CEFA82468B462E48006806F0D8FD24
:101CC00052465B46CDE9000106F018F8CDE9020165
:101CD00005F0E2FF2749086024480078401E2349A8
:101CE0000870224800780428C6DA1B48407830384B
:101CF00009285CD2DFE800F0050D464E56575859CA
:101D00005A001D491B48006806F04CFE1B4908603C
:101D10004DE019491748006806F044FE184908606C
:101D200045E052E044E0000040420F000010024055
:101D3000040C01400848004074000020700000209E
:101D40000500002001000020020000200300002008
:101D50000400002078000020980500207900002071
:101D60002C00002037000020380000207A000020DE
:101D7000000024407C0000200000C84240000020F9
:101D80004400002012491348006806F00BFE124977
:101D900008600CE00E490F48006806F003FE0F498A
:101DA000086004E003E002E001E000E000BF00BFE3
:101DB00000200B4908700B4908700B490870054951
:101DC00008603221094804F045FDBDE8FF9F00008E
:101DD0000000C8427C000020480000204C00002089
:101DE00078000020790000207A000020980500206B
:101DF00010B51248806940F004001049886110480D
:101E0000006820F470200E4908600846006840F41D
:101E1000002008600A480830006840F480500849F3
:101E20000831086001220C210020FEF7DFFA0223AE
:101E3000282201211846FEF79FFA10BD001002402B
:101E4000040801400146002901DA484200E0084642
:101E5000704700B503460A46002B07DD0020FE4907
:101E600008600120FD49C1F8B80106E00120FA49E7
:101E700008600020F949C1F8B8011846FFF7E2FFF1
:101E8000F7490880002A08DD0020F3490839086076
:101E90000120F249C1F8B00107E00120EE490839FC
:101EA00008600020ED49C1F8B0011046FFF7CAFFF5
:101EB000EB490C31088000BD70B506460D46E94976
:101EC000304606F0CDFE0CD3E749304606F0C8FF99
:101ED00007D3E6480078012803D040F256408542F7
:101EE0000EDA01240020DC49091F0860DB49C1F833
:101EF000BC01D94908390860D849C1F8B00100E0EF
:101F00000024204670BD70B506460C461546D748DD
:101F1000007808B9002070BDD548008870B9D5494F
:101F2000304606F09DFF09D2D349304606F098FEB0
:101F300004D21CB915B90120CD490880CC480088CD
:101F400001281DD1CD480088401C80B2CB490880B3
:101F5000322803DD00200880C549088014F1030FF2
:101F60000EDA15F1030F0BDA14F13C0F08DD15F151
:101F70003C0F05DD0020BE49088008800120CAE72B
:101F80000020C8E72DE9F04107460E4614461D46DD
:101F9000BB480088E0B92046FFF754FF02462846B8
:101FA000FFF750FF10441E2805DAB6480088401C91
:101FB000B449088002E00020B2490880B148008896
:101FC0000A2805DD0120AE4908800020AD490880BF
:101FD000AB48008801281DD1AB480088401C80B266
:101FE000A9490880C82803DD00200880A44908808A
:101FF000A649384606F034FF0CD2A549304606F013
:102000002FFF07D2A349304606F02AFE02D2022053
:102010009B4908809A480088022816D19E4800886B
:10202000401C80B29C490880642803DD00200880A1
:10203000934908806019FFF705FF872805DD002018
:102040008F4908800120BDE8F0810020FBE741F6C0
:10205000F42092490978012904D191490968643131
:102060008F4A11608F490978012904D18E49096886
:1020700064398D4A11608A4909684242914202DA04
:102080004142874A116086490968814201DD8449DD
:102090000860854909684242914202DA4142824A17
:1020A000116081490968814201DD7F4908607047FC
:1020B0002DE9F84F05460E4691467C480078582198
:1020C00091FBF0F7384606F09FFD0446DFF8E0A1EB
:1020D0004FF0000B77480078012803D0764800784D
:1020E000012834D14FF07E517448006806F0ECFBB3
:1020F0007249074608604FF07E5106F015FD07D182
:10210000A819FFF79FFE074606F07EFD6C490860A0
:102110006B4801686B4806F045FC6B49086008464F
:10212000006806F0A5FB07464FF03332674B06F018
:1021300053F802D2664864490860664962480068FC
:1021400006F08EFE0BD263485F49086007E06248E4
:102150005D490860002059490860594908605548A0
:102160000078012808D1584801685C48006806F0EA
:10217000B3FE5A4908600FE04F480078012808D1A3
:10218000514801685548006806F09EFB53490860B5
:1021900002E000205149086021465048006806F0DE
:1021A0005FFE01D24D48046084F000474B4801684F
:1021B000384606F055FE03D284F0004047490860D7
:1021C00036480078012803D036480078012802D12B
:1021D0004FF07C5B01E04FF0000B5946484606F09B
:1021E00073FD00903D48006880F00048514640462D
:1021F00006F06AFD0746009906F06EFE3849086051
:102200000846006806F0C4FCBDE8F88F2DE9FC5FC5
:102210000446894633480078012807D123480078CE
:10222000012803D130483149086002E030482F4985
:1022300008601A480078012860D11C48007806F030
:10224000FBFC06462948006880F0004531462846D8
:1022500006F0A8FB27494FE0BC81214200802142C3
:10226000342C0140000020C2000020420600002063
:10227000D0000020000020C100002041D20000203A
:10228000C8000020CA000020CC0000200020CB465F
:102290000000A0C10000A041CE00002001000020ED
:1022A0001000002002000020140000200500002083
:1022B000000028420300002004000020C400002089
:1022C000BC00002000004842C00000203333E33F40
:1022D0009A99193F000040406666663FB4000020AE
:1022E000B80000203600002000005C42B000002052
:1022F0000000DC42A8000020086013E0FD480078E0
:1023000001280CD1FC48007806F096FC05462946C9
:10231000FA48006806F046FBF949086002E0002030
:10232000F7490860F7480078012818D1F648006896
:10233000B0F5FA7F13D2F548007801280FD0F448A1
:10234000007801280BD0EC48007806F075FC0546B3
:102350002946EA48006806F025FBE949086004EBD5
:102360000901084606F050FCEA490860EA4800689E
:1023700006F07EFA0746E94AE94B05F069FF054693
:1023800005F08AFCE4490860E248006806F070FA4B
:102390000546E24AE34B05F05BFF07468846DE4808
:1023A000006806F065FA82463A46434605F0A6FC08
:1023B000CDE9000105F070FCD749086008460168C6
:1023C000D948006806F080FAD7490860CC4801680F
:1023D000D548006806F080FDD3490860D349D2484B
:1023E000006806F03DFD02D2D048CF490860D049D0
:1023F000CD48006806F034FC02D2CD48CA490860D6
:10240000CC480168C848006806F05EFC0546CA482A
:102410000168C148006806F057FC0646294606F0E8
:1024200053FAC6490860C6480168C6480068FFF705
:1024300043FD012803D0C4480078012802D10020C0
:10244000B9490860BD48006806F0A2FBBDE8FC9FE2
:102450002DE9F04705460C460021284606F03CFDD4
:102460008046BA480168204606F02EFC8146414667
:10247000B748006806F028FC8246494606F024FA70
:10248000074606F085FB06463046BDE8F08770B586
:102490003220FEF79BF90546012D07D1AA480078A6
:1024A00008B9012000E00020A7490870022D07D1DB
:1024B000A848007808B9012000E00020A54908706C
:1024C000FEF7F3F90446012C07D18E48007808B9CD
:1024D000012000E000208B49087070BD2DE9F04F0D
:1024E00089B0814603F073FD9B490860B9F1010F83
:1024F0001ED103F0DBFB9948006880F00040914951
:1025000008609749B1F90010484206F07DFB9549F3
:1025100008609349B1F9040006F076FB924908601F
:102520009249B1F9040006F06FFB91490860B2E0EE
:102530004421D020FFF70FF980464321D020FFF738
:102540000AF908EB0027384606F05EFB04464821EE
:10255000D020FFF700F980464721D020FFF7FBF895
:1025600008EB0027384606F04FFB06463E21D020F8
:10257000FFF7F1F880463D21D020FFF7ECF808EB9B
:102580000027384606F040FB82464021D020FFF766
:10259000E2F880463F21D020FFF7DDF808EB002766
:1025A000384606F031FB05464FF08E41204606F0D6
:1025B00057FC05D24FF08F41204606F08DFC0446B3
:1025C0004FF08E41304606F04BFC05D24FF08F4164
:1025D000304606F081FC06464FF08E41504606F02C
:1025E0003FFC05D24FF08F41504606F075FC824605
:1025F0004FF08E41284606F033FC05D24FF08F4154
:10260000284606F069FC054656480460284606F050
:102610002FF9CDE90001504606F02AF90746DDE919
:10262000002304F063FD0022524BCDE9020105F0C6
:102630000FFE514A514BCDE9040105F01BFCCDE9D9
:10264000060105F029FB8346204606F011F94FF0FC
:1026500066324B4BCDE9060105F00CFC074605F050
:102660001BFB044647480078022804D121465846FF
:1026700002F054FF07E043480078032803D12146C5
:10268000584603F062F8404800682E490860364812
:1026900006603748056009B0BDE8F08F10B53B48CB
:1026A000006800287CD14FF48050394908603948CF
:1026B000007808B9012000E000203649087036484B
:1026C000007801280BD135480078401CC0B233494E
:1026D00008700A2803D1002008702F4908702D487F
:1026E000007801287ED127480078FFF7F7FEFEF733
:1026F000E8FB56E00200002005000020B0000020AA
:10270000A800002036000020300000200300002038
:1027100004000020A0000020A40000209A999999AC
:102720009999E93F9999C93FAC00002000401C46A7
:1027300000401CC64C000020480000209C000020E7
:102740001C00002020000020060000204400002083
:102750004000002007000020180000206801002031
:102760005401002024000020280000205A010020ED
:102770003C00002000806640F1D4C853FB21094092
:102780006666304000000020040100203001214234
:10279000140401408C00002035000020340000208B
:1027A00096E04C4908604C480068401C4A49086063
:1027B0004A4800684749096808444849086046484B
:1027C000006864280BD108460068642190FBF1F092
:1027D000434908600020414908603F4908600020E3
:1027E00010BDFFE70220FEF7D4FD3E49086004203B
:1027F000FEF7CFFD3C4908603C480078FFF76EFECD
:10280000FEF7E6FB3A48007810B96420FDF7A4FF14
:1028100037480078012802D10020FDF79DFFFFF71F
:1028200036FE3448016834480068FFF711FE33492A
:1028300008602D4801682B480068FFF7E7FC304925
:102840000860304802682848016826480068FFF799
:102850002FFC2D4908602948006829490968084467
:1028600029490968401A2949086024480068244910
:102870000968084424490968084425490860FFF7A5
:10288000E6FB19480368174802681B48016821489D
:102890000068FFF777FB10B101201F49087012484C
:1028A00002681048016814480068FFF72CFB10B15B
:1028B0000020194908700A4801680F480068FFF7AE
:1028C000FBFA28B91248016810480068FFF7C1FAFE
:1028D000002085E790000020940000209800002050
:1028E0001C000020080000200C0000200000002038
:1028F000360000202400002020000020800000205E
:102900008400002028000020880000201000002003
:10291000140000203C0000200600002038B50446CA
:10292000FB4890F82400C0B114B10220009001E0EF
:1029300000200090F64A1268D17BF54A5268107860
:102940006B460122FEF76AFE10B14FF0FF3038BD32
:102950009DF80010EE48417423E0ED48807A10B9EC
:102960004FF0FF30F3E724B1E948407C08B1002084
:10297000EDE714B10120009001E000200090E44A4E
:102980001268D17BE24A526810786B460122FEF74A
:1029900045FE10B14FF0FF30D9E79DF80010DC483C
:1029A00041740020D3E738B5002419E0D848006806
:1029B000C07AA04204D0D6480068407DA04200D131
:1029C0000CE0D349496808786B4601222146FEF79E
:1029D00087FE10B14FF0FF3038BD00BF601CC4B29D
:1029E000CB4840680079A042E0DC0020F4E770B5F5
:1029F00004460D46C6480068C07AA04204D0C448C8
:102A00000068407DA04202D14FF0FF3070BDC04849
:102A100040680079A04202DC4FF0FF30F6E7BC4985
:102A2000496808782B4601222146FEF759FEEDE75A
:102A300038B50446B64890F82300A04201D10020E2
:102A400038BD14B13020009001E000200090B04863
:102A5000807C20B19DF8000040F002000090AC485E
:102A600090F8220020B19DF8000040F08000009016
:102A7000A74A1268117DA64A526810786B46012257
:102A8000FEF7CCFD10B14FF0FF30D9E7A04880F839
:102A900023400020D4E738B5044604F0700010B19C
:102AA0000120009005E014B10020009001E04020DA
:102AB0000090974A1268917C954A526810786B464C
:102AC0000122FEF7ABFD20B1002191488172481E22
:102AD00038BD9DF8000020F040018D4801730020B2
:102AE000009004F0400020B99DF8000040F0040080
:102AF000009004F0200020B99DF8000040F0020092
:102B0000009004F0100020B99DF8000040F0010092
:102B1000009004F0080020B99DF8000040F0380053
:102B200000907B4A1268D17C794A526810786B46D3
:102B30000122FEF773FD20B1002175488172481E05
:102B4000C6E724B1082C02D00020FFF771FF7048BF
:102B50008472002101753220FDF7D6FB0020B7E713
:102B600038B504466A48807CA04201D1002038BDB7
:102B7000002C46D0664A12681179654A526810786E
:102B80006B460122FEF7ACFD10B14FF0FF30EEE7CF
:102B90009DF8000020F0200000905D4A1268117935
:102BA0005B4A526810786B460122FEF737FD10B180
:102BB0004FF0FF30DBE70320FDF7A6FB022000907B
:102BC000534890F8220020B19DF8000040F08000AA
:102BD00000904F4890F8230020B19DF8000040F08D
:102BE000300000904A4A1268117D494A52681078B4
:102BF0006B460122FEF712FD002851D04FF0FF3046
:102C0000B5E7434A12681179414A526810786B4619
:102C10000122FEF765FD10B14FF0FF30A7E73C48F9
:102C2000807A00F0010028B19DF8000040F02000FB
:102C3000009004E09DF8000020F020000090344A4D
:102C400012681179324A526810786B460122FEF7F9
:102C5000E5FC10B14FF0FF3089E70320FDF754FB8E
:102C60002B4890F8220010B18020009001E0002055
:102C70000090274890F8230020B19DF8000040F014
:102C800030000090224A1268117D214A5268107863
:102C90006B460122FEF7C2FC10B14FF0FF3066E731
:102CA0001B488474002062E708B51948807A10B97F
:102CB0004FF0FF3008BD00200090154A1268D17B0C
:102CC000134A526810786B460122FEF7A7FC10B138
:102CD0004FF0FF30EEE70E4A126851790C4A526805
:102CE00010786B460122FEF799FC10B14FF0FF30CF
:102CF000E0E7074A12681179054A526810786B4676
:102D00000122FEF78BFC28B14FF0FF30D2E7000024
:102D1000D4000020F74890F82400002850D00C2060
:102D20000090F44A12681179F24A526810786B46A2
:102D30000122FEF773FC10B14FF0FF30BAE7C0205C
:102D40000090EC48807A00F0010020B19DF800006E
:102D500040F020000090E74A12681179E54A526875
:102D600010786B460122FEF759FC10B14FF0FF308E
:102D7000A0E7E048407C10B10220009001E0002074
:102D80000090DC4A1268D17BDA4A526810786B46B0
:102D90000122FEF743FC10B14FF0FF308AE700201C
:102DA0000090D44A12685179D24A526810786B4622
:102DB0000122FEF733FC002852D04FF0FF3079E7B4
:102DC00004200090CB4A12681179CA4A52681078E0
:102DD0006B460122FEF722FC10B14FF0FF3069E78D
:102DE000C448807C20B9C348807A00F0010010B943
:102DF0004020009001E060200090BE4A12681179E6
:102E0000BC4A526810786B460122FEF707FC10B1ED
:102E10004FF0FF304EE7B748407C10B101200090E2
:102E200001E000200090B34A1268D17BB14A526899
:102E300010786B460122FEF7F1FB10B14FF0FF3026
:102E400038E7AC4A12685179AA4A52681078A94BFF
:102E500010330122FEF7E2FB10B14FF0FF3029E7FB
:102E6000002027E770B50446002624F00104A1489D
:102E700090F8240008B1002070BD9E48807A10B9F7
:102E80004FF0FF30F8E79B48057C807A2040994955
:102E900008740846007CA04202D04FF0FF3600E0E4
:102EA000002614B99348007D18B10120FFF736FDC4
:102EB00002E00020FFF732FD3CB1FFF7F5FE20B144
:102EC0008C4805744FF0FF30D6E73046D4E738B56C
:102ED00004468848807A10B94FF0FF3038BDBC2CCA
:102EE00002DB0120009015E0622C02DB0220009042
:102EF00010E02A2C02DB032000900BE0142C02DBF4
:102F00000420009006E00A2C02DB0520009001E07E
:102F1000062000907748C07A9DF80010884201D1C1
:102F20000020DBE7734A12689178724A5268107881
:102F30006B460122FEF772FB10B14FF0FF30CDE778
:102F40009DF800106B48C1720020C7E738B50446F1
:102F5000282C02DD4FF0FF3038BDDCB90020FFF730
:102F600067FD00208DF8000007208DF80100614A00
:102F70001268917C5F4A526810786B460222FEF715
:102F80004DFB10B14FF0FF30E6E7002159480175C5
:102F90000020E1E70120FFF74BFD20208DF8000025
:102FA000012C06D100208DF801000520FFF78FFFCE
:102FB00017E0052C06DC01208DF801000520FFF745
:102FC00086FF0EE0142C06DC02208DF801000A209A
:102FD000FFF77DFF05E003208DF801001420FFF7C7
:102FE00076FF9DF80100072101EB8010C0B28DF83B
:102FF0000100404A1268917C3E4A526810786B4644
:103000000222FEF70BFB10B14FF0FF30A4E70821BE
:103010003848817200210173012101750020FFF7FA
:1030200021FF002098E738B504463248807A10B96D
:103030004FF0FF3038BD2F4890F8240010B14FF00A
:10304000FF30F7E72B48007D50B134B1282C04DC69
:10305000E0B2FFF77BFF0020ECE70020FFF776FFF0
:10306000042C01DA042404E0B4F57A7F01DD4FF486
:103070007A744FF47A7090FBF4F0401EC0B2009066
:103080001C4A126851781B4A526810786B4601221C
:10309000FEF7C4FA10B14FF0FF30CBE79DF8000007
:1030A000401C4FF47A7191FBF0F081B21148C1815C
:1030B0000146C9894810FFF70AFF0020BAE738B572
:1030C00004460C48807A10B94FF0FF3038BD022C0E
:1030D00006D0042C07D0082C08D0102C0FD10BE000
:1030E000002000900EE0082000900BE010200090DF
:1030F00008E00000D40000201820009002E04FF00B
:10310000FF30E3E700BFF948407A9DF80010B0EBCC
:10311000E10F01D10020D9E7F44A1268D179F34ACE
:10312000526810786B460122FEF778FA10B14FF022
:10313000FF30CBE79DF80000C110EC484172002041
:10314000C4E738B50446E948807A10B94FF0FF303B
:1031500038BDFA2C09D0B4F5FA7F09D0B4F57A7FDE
:1031600009D0B4F5FA6F0CD108E0002000900BE014
:103170000820009008E01020009005E01820009042
:1031800002E04FF0FF30E3E700BFD848007A9DF837
:103190000010B0EBE10F01D10020D9E7D34A12684B
:1031A0009179D24A526810786B460122FEF736FABE
:1031B00010B14FF0FF30CBE79DF80000C010CB49B5
:1031C00008720020C4E71CB580208DF80000C74AB3
:1031D0001268917CC54A526810786B460122FEF74E
:1031E0001DFA10B14FF0FF301CBD6420FDF78CF8C4
:1031F00000208DF80000BD4A1268917CBB4A5268DD
:1032000010786B460122FEF709FA10B14FF0FF303B
:10321000EAE7B64A1268917DB44A526810786B4664
:103220000622FEF75DFA10B14FF0FF30DCE79DF8A3
:103230000500C007400F9DF8031001F0010140EAAE
:1032400041009DF8011001F0010140EA010494B130
:10325000012C03D10121A548C17431E0022C03D116
:103260000021A248C1742BE02146A1A003F044FA3A
:103270004FF0FF30B8E79D4A1268D1789B4A5268F8
:1032800010786B460122FEF72BFA10B14FF0FF3099
:10329000AAE79DF8000000F00F042CB99E4803F047
:1032A0002BFA4FF0FF309FE7042C06D19BA003F0D0
:1032B00023FA01218D48C17402E000218B48C174BA
:1032C000FF218A488172FF2088490872FF218748C0
:1032D0004172C1724FF6FF71C181FF210174817487
:1032E0000121017380F82210002180F8231041751C
:1032F00001751630016041608160163880F8241035
:1033000080F82510C1844FF4FA60FFF71AFF10B15E
:103310004FF0FF3068E70220FFF7D1FE10B14FF009
:10332000FF3061E72A20FFF7D2FD10B14FF0FF30E8
:103330005AE73220FFF777FE10B14FF0FF3053E726
:103340000020FFF78FFD10B14FF0FF304CE7002059
:10335000FFF706FC10B14FF0FF3045E70020FFF704
:103360009AFB002040E770477CB504460D465F4855
:10337000807A00F0700010B94FF0FF307CBD5B4ADE
:103380001268117B594A526810786B460622FEF784
:10339000A7F910B14FF0FF30F0E79DF801009DF85C
:1033A000001040EA012000B220809DF803009DF843
:1033B000021040EA012000B260809DF805009DF8EF
:1033C000041040EA012000B2A08015B12846FFF7A2
:1033D000CAFF0020D2E77CB504460D464348807AF8
:1033E00000F0080010B94FF0FF307CBD3F4A126872
:1033F000517B3E4A526810786B460622FEF770F900
:1034000010B14FF0FF30F0E79DF801009DF800107B
:1034100040EA012000B220809DF803009DF80210D0
:1034200040EA012000B260809DF805009DF804107C
:1034300040EA012000B2A08015B12846FFF793FFB3
:103440000020D2E72DE9FE4F05460C462748807A3A
:1034500018B94FF0FF30BDE8FE8F244A1268917B07
:10346000224A5268107802AB0222FEF739F910B1F5
:103470004FF0FF30EFE79DF809009DF8081040EA93
:10348000012006B214B12046FFF76DFF17494968C5
:10349000C88805F0D1FB154901904968B1F90800C9
:1034A00005F0B2FB8346304605F0AEFB594600906E
:1034B00005F012FD8246019905F074FA81461F4914
:1034C00005F002FA80464FF08F4105F0FDFB0746FC
:1034D00005F05EFB28600020BDE710B588B004460B
:1034E0001CB94FF0FF3008B010BD29E0D400002017
:1034F000556E737570706F7274656420736F667447
:10350000776172652070726F64756374207265767E
:103510002025642E0A000000D8A8000848616C66C7
:103520002073656E7369746976697479207061724D
:103530007420666F756E642E0D0A000000000C4248
:10354000206830B9606820B9A06810B9002008B0C0
:1035500010BDFA494968087806AB03221146FEF708
:10356000BFF810B14FF0FF30F1E79DF818000821C7
:1035700001EB201000F00F00ADF800009DF81900DD
:1035800001EB201000F00F00ADF802009DF81A00CA
:1035900001EB201000F00F00ADF80400206841009E
:1035A000BDF90000403091FBF0F000B2ADF8100022
:1035B00060684100BDF90200403091FBF0F000B2BC
:1035C000ADF81200A0684100BDF90400403091FB45
:1035D000F0F000B2ADF81400D8494968087806AB9D
:1035E00006221146FEF77CF810B14FF0FF30AEE72F
:1035F0009DF819009DF8181040EA012000B2ADF8BE
:1036000008009DF81B009DF81A1040EA012000B246
:10361000ADF80A009DF81D009DF81C1040EA01203D
:1036200000B2ADF80C00BDF81000BDF80810084459
:1036300000B2ADF81000BDF81200BDF80A10084441
:1036400000B2ADF81200BDF81400BDF80C1008442B
:1036500000B2ADF81400BDF81000000A8DF8180093
:10366000BDF81000C0B28DF81900BDF81200000AB4
:103670008DF81A00BDF81200C0B28DF81B00BDF81D
:103680001400000A8DF81C00BDF81400C0B28DF8BB
:103690001D00AA494968087806AB06221146FDF7C5
:1036A000BDFF10B14FF0FF3051E700204FE701465A
:1036B000A248007A30B1012807D0022809D0032897
:1036C0000FD10AE0FA2008800EE04FF4FA7008806B
:1036D0000AE04FF47A70088006E04FF4FA60088040
:1036E00002E00020088000BF00BF002070470146B4
:1036F0009248407A30B1012807D0022808D0032828
:103700000CD108E0022008700BE00420087008E0EB
:103710000820087005E01020087002E04FF0FF302C
:10372000704700BF8548C07C18B108784006000E7D
:1037300008700020F4E701468048C07A082817D2B4
:10374000DFE800F01704070A0D101318BC200880EA
:1037500013E06220088010E02A2008800DE0142089
:1037600008800AE00A20088007E00520088004E0BD
:1037700000BF00BF0020088000BF00BF00207047CE
:1037800001466E4890F8240010B14FF0FF307047AA
:103790006A48C08908800020F9E7014600200880B7
:1037A000401E704701464FF0FF30704701466348A6
:1037B000007A30B1012807D0022808D003280CD1A4
:1037C00008E05F4808600BE05E48086008E05E487B
:1037D000086005E05D48086002E04FF0FF30704788
:1037E00000BF0020FBE701465448407A30B1012871
:1037F00008D002280AD0032810D10BE04FF48040F3
:1038000008800EE041F69C7008800AE04FF480507A
:10381000088006E04FF40060088002E04FF0FF30BF
:10382000704700BF4548C07C10B108884010088030
:103830000020F5E701464148007C087000207047F1
:1038400001463E48807A10B10120087001E0002056
:1038500008700020704738B504463848807A10B99F
:103860004FF0FF3038BD354A1268117C334A526838
:1038700010786B460222FDF733FF10B14FF0FF3096
:10388000F0E79DF801009DF8001040EA012000B229
:1038900020800020E6E72DE9FE4F07468846924645
:1038A0001D46DDF830B000260024244890F824009E
:1038B00010B1601EBDE8FE8F002028701F48807A7E
:1038C00010B94FF0FF30F5E71C48007C10B94FF0FD
:1038D000FF30EFE71948007C00F0400008B1B01C51
:1038E000C6B21648007C00F0200008B1B01CC6B279
:1038F0001248007C00F0100008B1B01CC6B20F489E
:10390000007C00F0080008B1B01DC6B20B4A126876
:10391000917A0A4A526810786B460222FDF7E0FE5F
:1039200010B14FF0FF30C5E79DF801009DF8001081
:1039300040EA0129B1450BDA0020BBE7D4000020A2
:103940000000034300008342333303423333834197
:10395000FC4840684088B9EB600F17DDF94A1268EF
:10396000517CF84A526810786B460122FDF7B8FE88
:1039700010B14FF0FF309DE79DF8000000F01000FF
:1039800020B1FFF791F96FF0010093E75046FFF780
:10399000EAFCEC4A1268D17AEA4A526810786B461F
:1039A0003246FDF79DFE10B14FF0FF3082E799FBE4
:1039B000F6F0401E8BF8000000202870B4422AD098
:1039C000E048007C00F0080028B3601C1DF80000EF
:1039D0001DF8041040EA012000B2A8F80000E01C25
:1039E0001DF80010A01C1DF8000041EA002000B2E4
:1039F000A8F80200601D1DF80010201D1DF8000031
:103A000041EA002000B2A8F80400287840F008003D
:103A10002870A01D84B2B44213D0CA48007C00F0C4
:103A2000400070B1601C1DF800001DF8041040EA51
:103A3000012000B23880287840F040002870A01C97
:103A400084B2B44213D0BF48007C00F0200070B1B3
:103A5000601C1DF800001DF8041040EA012000B2AF
:103A60007880287840F020002870A01C84B2B442EE
:103A700013D0B448007C00F0100070B1601C1DF839
:103A800000001DF8041040EA012000B2B880287838
:103A900040F010002870A01C84B200200AE7F8B59E
:103AA00004460F461646A74890F8240010B94FF078
:103AB000FF30F8BDA348807A10B94FF0FF30F8E727
:103AC000A04A1268917A9F4A526810786B46022287
:103AD000FDF706FE10B14FF0FF30EAE79DF8010058
:103AE0009DF8001040EA0125A54203DA002030705D
:103AF000401EDEE7934840684088B5EB600F17DD55
:103B0000904A1268517C8F4A526810786B460122A5
:103B1000FDF7E6FD10B14FF0FF30CAE79DF8000059
:103B200000F0100020B1FFF7BFF86FF00100C0E710
:103B3000E2B2844B1B68D97A824B5B6818783B46AB
:103B4000FDF7CEFD10B14FF0FF30B2E795FBF4F07A
:103B5000401E30700020ACE701467A4880F8221001
:103B6000002070477CB5054676494968087801AB66
:103B700004220D21FDF7B4FD08B107207CBD9DF89E
:103B80000700C0F301109DF8041001F0E00140EAC5
:103B9000E1008DF800009DF80700C0F381009DF85A
:103BA000051001F0E00140EAE1008DF801009DF808
:103BB000070000F003009DF8061001F0E00140EA64
:103BC000E1008DF8020000241CE01DF8040018B983
:103BD000002045F8240013E05B4845F8240006E087
:103BE00055F82400594905F06FF845F824001DF8F0
:103BF0000400401EC0B20DF804000028F0D100BF40
:103C0000601CC4B2032CE0DB0020B7E72DE9FE4FB7
:103C100006460F4600256846FFF7A4FF002442E051
:103C200056F8240057F82410A0EB010ABAF1000F4F
:103C300001DB514601E0CAF10001084604F0E4FF4F
:103C400083464FF08F4104F0ADFE80465DF82400BE
:103C5000002104F069FF16D05DF82410404604F0FE
:103C6000A1FE82464FF07E5105F036F9814629F0DB
:103C7000004A3748416A504605F0F2F812D2012056
:103C8000A04005430EE03248C169404604F0E8FF19
:103C900005D32F48016A404605F0E2F802D2012020
:103CA000A0400543641C032CBADB2846BDE8FE8F08
:103CB0002DE9FC5F06460F46002522494968087831
:103CC00001AB03220D21FDF70BFD10B10720BDE86C
:103CD000FC9F9DF8040000F01F008DF804009DF883
:103CE000050000F01F008DF805009DF8060000F0AB
:103CF0001F008DF80600002462E056F8240057F8F3
:103D00002410A0EB010BBBF1000F01DB594601E0D1
:103D1000CBF10001084604F077FF4FF08F4100908F
:103D200004F040FE814601A8005DC0B30849086860
:103D300004F082FF83465946064804F033FE80466D
:103D40000FE00000D40000207B14AE3E1D5A843FDB
:103D5000409B000800B04C45FE49404604F0B4FFCB
:103D6000804601A8005D401EC0B201A90855002888
:103D7000F2D14146484604F015FE83464FF07E518D
:103D800005F0AAF882462AF0004BF34881695846AC
:103D900005F066F813D20120A04005430FE0FFE7CD
:103DA000ED480169484604F05BFF05D3EA484169E4
:103DB000484605F055F802D20120A0400543641C96
:103DC000032C9ADB284682E72DE9F04F87B00546A1
:103DD0000C46914601208DF8100000208DF811004E
:103DE000DE4A1268917CDD4A5268107804AB0222E8
:103DF000FDF714FC20B14FF0FF3007B0BDE8F08FA5
:103E0000C820FCF781FA00208DF81000D34A126810
:103E1000D17BD24A5268107804AB0122FDF7FEFB39
:103E200010B14FF0FF30E8E7CC4A12685179CB4A25
:103E30005268107804AB0122FDF7F0FB10B14FF08F
:103E4000FF30DAE7C54A1268917CC44A526810789C
:103E500004AB0122FDF7E2FB10B14FF0FF30CCE7DD
:103E6000BE4A1268D17DBD4A5268107804AB012267
:103E7000FDF7D4FB10B14FF0FF30BEE7B74A126830
:103E80001179B64A5268107804AB0122FDF7C6FBDF
:103E900010B14FF0FF30B0E70C208DF81000AF4AA2
:103EA00012681179AD4A5268107804AB0122FDF70F
:103EB000B5FB10B14FF0FF309FE70F20FCF724FA5D
:103EC000A648806A407A8DF81000A44A126891785A
:103ED000A24A5268107804AB0122FDF79FFB10B193
:103EE0004FF0FF3089E79D48806A007A8DF8100016
:103EF0009A4A12685178994A5268107804AB0122A4
:103F0000FDF78CFB10B14FF0FF3076E7B9F1000FF1
:103F100007D09248806A807A40F0E0008DF8100067
:103F200004E08E48806A807A8DF810008B4A12680F
:103F300091798A4A5268107804AB0122FDF76EFB32
:103F400010B14FF0FF3058E7B9F1000F07D08348A8
:103F5000806AC07A40F0E0008DF8100003E07E48EF
:103F6000C07A8DF810007D4A1268D1797B4A526878
:103F7000107804AB0122FDF751FB10B14FF0FF3078
:103F80003BE7B9F1000F02D0C820FCF7BDF9402093
:103F90008DF81000714A12681179704A52681078D1
:103FA00004AB0122FDF73AFB10B14FF0FF3024E7DC
:103FB00078208DF81000694A12685179674A526872
:103FC000107804AB0122FDF729FB10B14FF0FF3050
:103FD00013E761498889FCF797F900208DF81000F4
:103FE0005E4A126851795D4A5268107804AB01222A
:103FF000FDF714FB10B14FF0FF30FEE6574A126890
:10400000917A564A5268107804AB0222FDF768FB99
:1040100010B14FF0FF30F0E69DF811009DF8101040
:1040200040EA012B0C209BFBF0F0C6B20020A860F8
:1040300068602860A06060602060824665E0474A52
:104040001268D17A454A5268107804AB0C22FDF709
:1040500047FB10B14FF0FF30CFE69DF811009DF8FF
:10406000101040EA012000B2ADF808009DF81300DE
:104070009DF8121040EA012000B2ADF80A009DF848
:1040800015009DF8141040EA012000B2ADF80C00B4
:10409000BDF90810206808442060BDF90A10606866
:1040A00008446060BDF90C10A0680844A0609DF849
:1040B00017009DF8161040EA012000B2ADF800008C
:1040C0009DF819009DF8181040EA012000B2ADF8E3
:1040D00002009DF81B009DF81A1040EA012000B272
:1040E000ADF80400BDF90010286808442860BDF947
:1040F0000210686808446860BDF90410A8680844A4
:10410000A8600AF1010000F0FF0AB24597DB1248EF
:10411000D0F800C02868C117090441EA104107041B
:1041200062460023384602F0C2FA32460023CDE947
:10413000020102F0BCFA28600748D0F800C06868A5
:10414000C117090441EA10410704624600233846BA
:1041500006E0000054E3853F409B0008D4000020A7
:1041600002F0A5FA32460023CDE9020102F09FFADF
:104170006860FE48D0F800C0A868C117090441EA89
:104180001041070462460023384602F090FA324696
:104190000023CDE9020102F08AFAA860F348D0F8C2
:1041A00004C02168C817000440EA11480F046246A1
:1041B00000233846414602F07AFA32460023CDE920
:1041C000020102F074FA2060E848D0F804C0606888
:1041D000C117090441EA104107046246002338462A
:1041E00002F065FA32460023CDE9020102F05FFADF
:1041F0006060DE48D0F804C0A068C117090441EA35
:104200001041070462460023384602F050FA324655
:104210000023CDE9020102F04AFAA060A06800285C
:1042200004DDA068A0F58030A06003E0A06800F580
:104230008030A0600020E0E538B50446CC4890F816
:104240002400A04201D1002038BD24B3C84890F812
:10425000250010B94FF0FF30F6E70020FEF75EFBB7
:104260000020FEF77DFCC249C88CFEF7DCFE002072
:104270000090BF49496808786B4601222321FDF769
:10428000CDF90121BA4880F824100120FEF746FB41
:10429000FEF70AFD13E00020FEF740FBB448007C67
:1042A0000090B349496808786B4601222321FDF745
:1042B000B5F90021AE4880F82410FEF7F5FC002087
:1042C000C2E72DE9F04F8DB083460F4602200C90D7
:1042D000A74890F8240020B10020FFF7ADFF012689
:1042E00000E0002603A8FFF7E2F905A8FFF7FFF9B1
:1042F00001A8FFF720FA02A8FFF742FA9C4890F8BD
:104300000AA004A8FFF796FA002407E00022394625
:104310005846FFF759FD00B902E0641C022CF5DB9A
:1043200000BF022C01D1002528E0002407E0012273
:1043300006A909A8FFF748FD00B902E0641C022C99
:10434000F5DB00BF022C01D1002517E006A9384695
:10435000FFF75CFC00F0FF0809A95846FFF7A8FC2E
:1043600000F0FF090025B9F1000F01D145F001056A
:10437000B8F1000F01D145F0020500BFFF207C49D4
:104380000872FF217A484172C1724FF6FF71C181F4
:10439000FF218172017401210173BDF80C00FEF749
:1043A000D0FE9DF81400FEF78AFEBDF80400FEF76B
:1043B0008EFDBDF80800FEF736FE5046FEF76BFB9B
:1043C0009DF81000FEF74EFD16B10120FFF734FFF7
:1043D00028460DB0BDE8F08FF8B504460D461646E8
:1043E00016B94FF0FF30F8BD6148807A10B94FF030
:1043F000FF30F8E720128DF80000E0B28DF80100E0
:104400009DF8010028445A4949684989884202DDDB
:104410004FF0FF30E7E7564A1268117E544A52685F
:1044200010786B460222FDF7F9F810B14FF0FF301B
:10443000D9E7EAB24E4B1B68597D4D4B5B68187843
:104440003346FDF7EBF810B14FF0FF30CBE700201B
:10445000C9E7F8B504460D46164616B94FF0FF30C9
:10446000F8BD4348807A10B94FF0FF30F8E72012CA
:104470008DF80000E0B28DF801009DF8010028449D
:104480003B4949684989884202DD4FF0FF30E7E740
:10449000374A1268117E364A526810786B460222FB
:1044A000FDF7BCF810B14FF0FF30D9E7EAB2304B5E
:1044B0001B68597D2E4B5B6818783346FDF710F961
:1044C00010B14FF0FF30CBE70020C9E72DE9F043F2
:1044D00085B005460E4690469946254890F8250039
:1044E00020B14FF0FF3005B0BDE8F08316B94FF0B2
:1044F000FF30F8E7002423E0281B102801DD1020FE
:1045000000E0281B87B2321939462046FFF764FFC6
:1045100010B14FF0FF30E6E701AA39462046FFF719
:1045200098FF10B14FF0FF30DDE730193A4601A98E
:1045300002F05CF910B16FF00100D4E7E01984B229
:10454000AC42D9DB4FEA28208DF8000008F0FF00CC
:104550008DF80100064A1268917E054A526810786B
:104560006B460222FDF75AF838B103E0409B000881
:10457000D40000204FF0FF30B5E701218A4880F8D1
:104580002510A0F826900020ADE70146864890F857
:10459000240008700020704702464FF0FF3070473B
:1045A00001464FF0FF307047F8B505460F461446F8
:1045B000002C70D0B5F5FF5F01DDFF2605E0202D52
:1045C00001DA012601E0C5F3471607B90127282CB7
:1045D00002DD4FF0FF30F8BD7348407D28BB7248C4
:1045E00090F8240038B10020FFF726FE01216E4824
:1045F00080F8201003E000216B4880F820106A4802
:104600001630FFF754F868481830FFF770F866481E
:104610001A30FFF790F864481C30FFF7B1F8624891
:10462000817A81771F30FFF705F90020FEF776F9D0
:104630000020FEF78BFC00208DF800005A4A12681B
:104640009178594A526810786B460122FCF7E6FFD0
:1046500010B14FF0FF30BEE740208DF80000524A05
:104660001268D17B504A526810786B460122FCF7E1
:10467000D5FF00B165E08DF800608DF801704A4A01
:104680001268117A484A526810786B460222FCF789
:10469000C5FF08B155E047E00520FBF735FE42486D
:1046A000407A072101EBC000C0B28DF800003E4AFD
:1046B0001268D1793C4A526810786B460122FCF7A7
:1046C000ADFF00B13DE020208DF80000012C03D1AA
:1046D00000208DF801000EE0052C03DC01208DF890
:1046E000010008E0142C03DC02208DF8010002E038
:1046F00003208DF801009DF80100072101EB8010D7
:10470000C0B28DF80100284A1268917C264A52688E
:1047100010786B460222FCF781FF00B111E0012105
:1047200021484175002056E71F4A1632002103E058
:10473000505C00B105E0491C0C29F9D34FF0FF3063
:1047400049E7FF2018490872FF2117484172C172DA
:104750004FF6FF71C181FF21817201740121017344
:104760000146887FFEF797F90F49C88AFEF7E9FCF2
:104770000D49087EFEF7A3FC0B49488BFEF7A7FB0B
:104780000949888BFEF74FFC0749C87FFEF76AFB93
:10479000054890F8200010B10120FFF74DFD0021E1
:1047A00001484175002016E7D400002010B5C82349
:1047B0004FF48062F74940F6F630FFF787FE10BDF0
:1047C00010B586B00446F4A000680390F3A000681A
:1047D0000290F3A000680190F2A00068009004F03D
:1047E000030003A9085C8DF8140003A8C4F3C101F9
:1047F000405C8DF8150003A8C4F38111405C8DF86E
:10480000160004F0030002A9085C8DF8100002A84D
:10481000C4F3C101405C8DF8110002A8C4F38111FA
:10482000405C8DF8120005AA032140F22640FFF7F4
:10483000D3FD18B14FF0FF3006B010BD04AA03211C
:1048400040F22A40FFF7C8FD10B14FF0FF30F3E708
:10485000019805900098049004F0040058B19DF868
:10486000140040F001008DF814009DF8100040F095
:1048700001008DF8100004F0200058B19DF81500DB
:1048800040F001008DF815009DF8110040F0010086
:104890008DF8110004F4807058B19DF8160040F0B6
:1048A00001008DF816009DF8120040F001008DF80F
:1048B000120005AA03214FF48860FFF78DFD10B1A7
:1048C0004FF0FF30B8E704AA032140F23140FFF770
:1048D00083FD10B14FF0FF30AEE7B34804810020F4
:1048E000AAE71FB50446B048007A00F0030054F868
:1048F00020000190AC48007A00F0040010B101984B
:1049000040420190A848007AC0F3C10054F820004A
:104910000290A548007A00F0200010B102984042B1
:104920000290A148007AC0F3811054F8200003904F
:104930009D48008900F4807010B1039840420390B4
:104940009A49019880FB0101800F40EA81000190A3
:104950009649029880FB0110820042EA9170029011
:104960009249039880FB0110820042EA9170039003
:104970000198000E8DF800000198000C8DF80100E0
:104980000198000A8DF802000198C0B28DF803006A
:104990006A4604214FF47470FFF71EFD18B14FF002
:1049A000FF3004B010BD0298000E8DF80000029890
:1049B000000C8DF801000298000A8DF802000298A0
:1049C000C0B28DF803006A4604214FF47570FFF7FA
:1049D00003FD10B14FF0FF30E3E70398000E8DF8B0
:1049E00000000398000C8DF801000398000A8DF870
:1049F00002000398C0B28DF803006A4604214FF408
:104A00007670FFF7E9FCCCE770B588B0064601A8E0
:104A1000FEF7E9FEBDF804000021C90341EA504554
:104A2000C4036148007A00F0030056F820000590A6
:104A30005D48007A00F0040010B1059840420590EE
:104A40005948007AC0F3C10056F820000690564835
:104A5000007A00F0200010B10698404206905248BB
:104A6000007AC0F3811056F8200007904E48008964
:104A700000F4807010B10798404207900598C11764
:104A8000A0FB042301FB043100FB0510810041EA77
:104A9000927005900698C117A0FB042301FB043116
:104AA00000FB0510810041EA927006900798C1173B
:104AB000A0FB042301FB043100FB0510810041EA47
:104AC000927007900598000E8DF808000598000C6C
:104AD0008DF809000598000A8DF80A000598C0B203
:104AE0008DF80B000698000E8DF80C000698000C4F
:104AF0008DF80D000698000A8DF80E000698C0B2D9
:104B00008DF80F000798000E8DF810000798000C24
:104B10008DF811000798000A8DF812000798C0B2AE
:104B20008DF8130002AA0C214FF42570FFF754FCF6
:104B300008B070BD30B585B004461DA207CA02ABEF
:104B400007C3C82C03DD4FF0FF3005B030BDC820CF
:104B500090FBF4F0401E85B2280A8DF80000E8B200
:104B60008DF801006A46022140F21620FFF734FC5E
:104B700010B14FF0FF30E8E702AA0C2140F6C12047
:104B8000FFF72AFC10B14FF0FF30DEE706488481C2
:104B90000020DAE7689B00084CCD6C000CC92C00A3
:104BA0003656760026466600CC05002009E3CA0288
:104BB000FEF2ABC4AAF1DFDFBBAFDFDF0146FC488A
:104BC00080890880002070472DE9FC4706460F4683
:104BD00006F0070010B1B7F5C86F03DD4FF0FF30E6
:104BE000BDE8FC87384604F027F88146F14903F018
:104BF000D9FE80466846FEF77AFD9DF8000002283F
:104C000006D0042816D0082826D0102848D135E030
:104C10004FF08D41404604F057F8814603F0D4FF31
:104C200084B2E549404604F04FF8814603F0CCFFDA
:104C300085B238E04FF08C41404604F045F881469B
:104C400003F0C2FF84B2DD49404604F03DF88146DE
:104C500003F0BAFF85B226E04FF08B41404604F0E6
:104C600033F8814603F0B0FF84B2D549404604F0E2
:104C70002BF8814603F0A8FF85B214E04FF08A417B
:104C8000404604F021F8814603F09EFF84B2CD49EE
:104C9000404604F019F8814603F096FF85B202E021
:104CA0004FF0FF309CE700BF20128DF80400E0B207
:104CB0008DF8050028128DF80600E8B28DF807007F
:104CC00006F00100A0B101AA02214FF4EA70FFF73B
:104CD00083FB10B14FF0FF3082E70DF10602022195
:104CE0004FF49270FFF778FB10B14FF0FF3077E789
:104CF00006F00200A0B101AA02214FF4EC70FFF708
:104D00006BFB10B14FF0FF306AE70DF10602022194
:104D10004FF49470FFF760FB10B14FF0FF305FE786
:104D200006F00400A0B101AA02214FF4EE70FFF7D3
:104D300053FB10B14FF0FF3052E70DF10602022194
:104D40004FF49670FFF748FB10B14FF0FF3047E784
:104D5000002045E738B504460020009004F001002B
:104D600020B19DF8000040F03000009004F00200F7
:104D700020B19DF8000040F00C00009004F0040009
:104D800020B19DF8000040F0030000906A46012128
:104D90004FF4A470FFF720FB38BD38B50446012C52
:104DA00001DA012402E0042C00DD0424601EC0B2FC
:104DB00000906A46012140F24F10FFF70DFB38BD0D
:104DC00038B50446052094FBF0F085B228128DF822
:104DD0000000E8B28DF801006A4602214FF4EF703E
:104DE000FFF7FAFA38BD38B50446052094FBF0F019
:104DF00085B228128DF80000E8B28DF801006A46ED
:104E000002214FF4ED70FFF7E7FA38BDF8B505461B
:104E10000E464FF47A7095FBF0F000FB06F4200E7E
:104E20008DF80000200C8DF80100200A8DF802009A
:104E3000E0B28DF803006A4604214FF4AE70FFF72C
:104E4000CBFAF8BD38B50446052094FBF0F084B2E7
:104E500020128DF80000E0B28DF801006A460221B0
:104E60004FF4AD70FFF7B8FA38BD38B504460520E9
:104E700094FBF0F084B220128DF80000E0B28DF8BF
:104E800001006A4602214FF4AC70FFF7A5FA38BD65
:104E900038B5044614B94FF0FF3038BD6A460421D6
:104EA0004FF45870FFF7D5FA10B14FF0FF30F4E728
:104EB0009DF8000000069DF8011040EA01409DF8B1
:104EC000021040EA01209DF80310084320600020F2
:104ED000E3E738B50446200E8DF80000200C8DF86D
:104EE0000100200A8DF80200E0B28DF803006A4646
:104EF00004214FF45870FFF76FFA38BD38B50446F7
:104F000014B94FF0FF3038BD6A4604214FF4717078
:104F1000FFF79FFA10B14FF0FF30F4E79DF8000063
:104F200000069DF8011040EA01409DF8021040EA99
:104F300001209DF80310084300EB800080002060F2
:104F40000020E0E738B504461420B4FBF0F4200E4E
:104F50008DF80000200C8DF80100200A8DF8020069
:104F6000E0B28DF803006A4604214FF47170FFF738
:104F700033FA38BD38B5044664B120208DF80000FE
:104F800028208DF8010030208DF8020038208DF89F
:104F9000030004E0A3220421684601F053FC6A46A2
:104FA000042140F69E20FFF717FAFDF77DFE38BD7D
:104FB000CC05002000004843000040460000C045EA
:104FC000000040450000C04438B5044664B1C0202C
:104FD0008DF80000C2208DF80100C4208DF8020079
:104FE000C6208DF8030004E08B220421684601F0FE
:104FF00029FC6A46042140F69820FFF7EDF9FDF7F9
:1050000053FE38BD3EB504466CB1FDA1D1E9002088
:105010008968CDE9002002916A4609214FF4976022
:10502000FFF7DAF93EBDF9A2D2E900109268CDE9A6
:10503000010200916A4609214FF49760FFF7CCF90D
:10504000F0E73EB5044602208DF80000CA208DF836
:105050000100E3208DF8020009208DF803006A4664
:1050600004216820FFF7B8F9A3208DF8000004F0B0
:10507000400048B1C0208DF80100C8208DF8020022
:10508000C2208DF8030006E0A3208DF801008DF802
:1050900002008DF8030004F4C07048B1C4208DF8FC
:1050A0000400CC208DF80500C6208DF8060006E02F
:1050B000A3208DF804008DF805008DF80600A320CC
:1050C0008DF807008DF808008DF809006A460A215E
:1050D00040F6A720FFF780F904F0030018B1202064
:1050E0008DF8000002E0D8208DF800006A4601210A
:1050F00040F6B620FFF770F904F0200018B1012047
:10510000FFF780FF02E00020FFF77CFF04F4C0708F
:1051100008B304F4807060B1B2208DF800008B20D9
:105120008DF80100B6208DF802009B208DF8030059
:105130000BE0B0208DF8000080208DF80100B42035
:105140008DF8020090208DF803006A46042140F695
:10515000A220FFF741F904F0010020B3F8208DF8F8
:1051600000006A4601214FF40B60FFF735F9FA2180
:105170000720FFF729FD0720FFF7ECFD0120FFF7CF
:105180000CFE6420FFF71CFE4FF4FA70FFF72BFEB5
:10519000C821A148FFF73AFE2820FFF753FE0A2056
:1051A000FFF763FE08E0D8208DF800006A46012171
:1051B0004FF40B60FFF710F904F0020018B1D9208A
:1051C0008DF8000002E0D8208DF800006A46012129
:1051D00040F23D70FFF700F904F0040018B101201F
:1051E000FFF7F2FE02E00020FFF7EEFE04F01000F1
:1051F00018B10120FFF7BEFE02E00020FFF7BAFE63
:1052000044F0080085494881FDF74EFD00208349A0
:10521000887304F0400018B10846807B801D8873B5
:1052200004F4C07020B17D48807B801D7B49887369
:1052300004F0140020B17948807B103077498873DE
:1052400004F0030020B17548807B001D734988730A
:1052500000203EBD0146714840890880002070470B
:105260002DE9F0410446E07800F0C006E07800F057
:105270003F05607800F0010098B1EF102846E9176B
:1052800005EB5171C910A5EBC101491C01F0FF08E4
:105290006248006820B1614841460268384690473C
:1052A00000BF607800F0080030B15C48406818B179
:1052B000B0115A4A516888470020BDE8F08110B506
:1052C00086B0044656A207CA03AB07C357A207CA53
:1052D0008DE80700012C09D0022C0ED103AA0B2166
:1052E00040F68220FFF778F806B010BD6A460B2121
:1052F00040F68220FFF770F8F6E74FF0FF30F3E753
:105300002DE9F04F8DB00746884615469946DDE9F0
:10531000166B0024002030804049887B5A4605A93E
:10532000FEF7BDFB18B1601E0DB0BDE8F08F3B4825
:10533000807A00F01400002861D09DF81400000667
:105340009DF8151040EA01409DF8161040EA012032
:105350009DF81710084328609DF8180000069DF876
:10536000191040EA01409DF81A1040EA01209DF80A
:105370001B10084368609DF81C0000069DF81D1076
:1053800040EA01409DF81E1040EA01209DF81F10E0
:105390000843A8609DF8200000069DF8211040EA0F
:1053A00001409DF8221040EA01209DF82310084397
:1053B000E86004F11000C4B2286800140190686825
:1053C00000140290A86800140390E8680014049088
:1053D00001984043029901FB0100039901FB010080
:1053E000049901FB010ABAF1706F02DBBAF1885F20
:1053F00022DDFDF759FC00203080401E94E721E0BB
:10540000B8AAB38DB4980D355D000000B8AAAAAA59
:10541000B088C3C5C700000009E3CA02CC0500205C
:10542000D8B1B9F38BA391B609B4D900DAB1B9F305
:105430008BA391B6DAB4DA00B6F9000040F48070BC
:10544000308000BF3448807A00F0400020B305A9C6
:10545000601C085C095D40EA012000B2A8F8000069
:1054600005A9E01C095C05AAA01C105C41EA00200B
:1054700000B2A8F8020005A9601D095C201D105C9F
:1054800041EA002000B2A8F80400A01DC4B2B6F999
:10549000000040F0080030801F48408900F4C070D0
:1054A00008B305A9601C085C095D40EA012000B250
:1054B000388005A9E01C095C05AAA01C105C41EA23
:1054C000002000B2788005A9601D095C201D105CD9
:1054D00041EA002000B2B880A01DC4B2B6F90000B5
:1054E00040F0700030800C48807A00F0030018B162
:1054F00005A90819FFF7B4FE4846FDF734FF002060
:1055000012E7014604480160002070470146024846
:105510004160002070470000CC0500202DE9F041DB
:1055200005460C46AA480168204603F0D5FC07460C
:10553000A8480168384603F0C7FB0646A64801683C
:10554000304603F0C1F9A4490860A4484168A44862
:10555000006803F0C1FC0646A0488168304603F0AD
:10556000BBFCA04908609D48C06880F000404860CE
:105570009A48C06880F0004088609B480068C86016
:1055800008689449096803F09FFB06469348016840
:10559000304603F099F991490860924948688D496D
:1055A000096803F091FB06468C484168304603F0D9
:1055B0008BF98A4948608B4988688649096803F0F5
:1055C00083FB064685488168304603F07DF98349B0
:1055D00088608449C8687F49096803F075FB0646FE
:1055E0007E48C168304603F06FF97C49C8607A484C
:1055F0000168284603F070FC7C4908607C4800780C
:1056000003F01AFB064675480168304603F05CFB60
:10561000784908607648007803F00EFB06466F482C
:105620008168304603F050FB734908607048007889
:1056300003F002FB07466F480168384603F044FB5D
:1056400006466E480168304603F03EF96C49086032
:10565000084601686748006803F0A4F969490860D2
:10566000674801686448006803F09CF9664908606F
:1056700060480068654908605D48007803F0DCFA1E
:10568000064656484168304603F01EFB60490860F4
:105690005E4801685B48006803F016FB06464F4809
:1056A0000168304603F00DFC4C4908605848016819
:1056B0005448006803F008FB0646484841683046F5
:1056C00003F0FFFB45494860504801684E480068B8
:1056D00003F0FAFA064641488168304603F0F1FBD0
:1056E0003E4988604A4801684748006803F0ECFA80
:1056F00006463A48C168304603F0E3FB3749C860C4
:105700003A4801683F48006803F0DEFA064632482E
:105710000168304603F0D8F82F4908603348016823
:105720003948006803F0D0FA064629480168304637
:1057300003F0CAF82649086008460168204603F0CD
:10574000CBFB34490860BDE8F0812DE9F04F8BB008
:1057500083468A46504603F08BF880462E4A2F4BEC
:1057600002F076FDCDE902011B48006803F080F8E5
:10577000CDE90001DDE9022302F0C0FA04460D463E
:10578000274801684FF07E5003F0A6FB804603F0E7
:105790006FF8064622462B4602F05AFDCDE9060177
:1057A0001F480168584603F08FFA044603F060F87A
:1057B000CDE90401DDE9062302F0A0FACDE90801F4
:1057C00002F06AFA044908600BB0BDE8F08F0000EF
:1057D00020010020180100200401002044010020C5
:1057E0000C010020DC050020100100202401002015
:1057F0001C010020280100202C01002014010020A1
:105800003001002034010020380100203C0100203C
:1058100040010020080100207B14AE47E17A743F6C
:1058200000010020014691F90020002A01DD00203E
:105830001EE091F90020002A01DA042018E091F915
:105840000120002A01DD012012E091F90120002A47
:1058500001DA05200CE091F90220002A01DD022086
:1058600006E091F90220002A01DA062000E0072074
:10587000704770B505462846FFF7D4FF0446E81C7C
:10588000FFF7D0FF44EAC00084B2A81DFFF7CAFFAB
:1058900044EA801084B2204670BD70B588B002A979
:1058A00005A8FEF70EFD0446072C3FD101A8FDF721
:1058B0007DFF059803F0A8F90646019903F004FA64
:1058C000054603F065F90590069803F09DF9064634
:1058D000019903F0F9F9054603F05AF90690079883
:1058E00003F092F90646019903F0EEF9054603F03C
:1058F0004FF9079005A8FEF7F4FF6846FDF773FF20
:10590000BDF80010029848430290BDF800100398BB
:1059100048430390BDF8001004984843049002A83F
:10592000FFF772F8FEA000F0E7FE00BF08B070BD00
:105930002DE9F04304460D46DDE90767002101200B
:1059400041E0DFF800C43CF81080A0F1010CDFF862
:10595000F49329F81C8009F1160C3CF81090A0F182
:10596000010CDFF8E08308F1160828F81C9008F114
:10597000160C3CF81090A0F1010C08F1160828F85C
:105980001C9008F1160C3CF81090A0F1010C08F1E5
:10599000160828F81C9008F1160C3CF81090A0F19D
:1059A000010C08F1160828F81C9008F1160C3CF8B8
:1059B0001090A0F1010C08F1160828F81C9000F1D5
:1059C000010C0CF0FF000A28BBDBDFF878C3ACF851
:1059D0001240ACF82850ACF83E20ACF85430ACF88B
:1059E0006A60ACF880700021002008E0DFF854C342
:1059F0003CF910C0614400F1010C0CF0FF000A28D2
:105A0000F4DB4FF00A0C91FBFCFC0FFA8CFCDFF886
:105A10003483A8F814C0002100200AE0DFF824C372
:105A20000CF1160C3CF910C0614400F1010C0CF0B3
:105A3000FF000A28F2DB4FF00A0C91FBFCFC0FFA86
:105A40008CF8DFF800C3ACF82A80002100200AE0BF
:105A5000DFF8F0C20CF12C0C3CF910C0614400F1ED
:105A6000010C0CF0FF000A28F2DB4FF00A0C91FB4E
:105A7000FCFC0FFA8CF8DFF8CCC2ACF840800021B7
:105A800000200AE0DFF8BCC20CF1420C3CF910C067
:105A9000614400F1010C0CF0FF000A28F2DB4FF02A
:105AA0000A0C91FBFCFC0FFA8CF8DFF898C2ACF8FA
:105AB0005680002100200AE0DFF888C20CF1580C63
:105AC0003CF910C0614400F1010C0CF0FF000A2801
:105AD000F2DB4FF00A0C91FBFCFC0FFA8CF8DFF8BC
